{"contracts/SafeExecution.sol":{"SafeExecution":{"abi":[{"inputs":[],"stateMutability":"nonpayable","type":"constructor"},{"anonymous":false,"inputs":[{"indexed":true,"internalType":"address","name":"user","type":"address"},{"indexed":false,"internalType":"uint256","name":"amount","type":"uint256"}],"name":"AllowanceSet","type":"event"},{"anonymous":false,"inputs":[{"indexed":true,"internalType":"address","name":"user","type":"address"},{"indexed":false,"internalType":"uint8","name":"action","type":"uint8"},{"indexed":false,"internalType":"uint256","name":"amount","type":"uint256"},{"indexed":false,"internalType":"uint256","name":"price","type":"uint256"},{"indexed":false,"internalType":"uint256","name":"nonce","type":"uint256"}],"name":"OrderExecuted","type":"event"},{"inputs":[],"name":"ACTION_BUY","outputs":[{"internalType":"uint8","name":"","type":"uint8"}],"stateMutability":"view","type":"function"},{"inputs":[],"name":"ACTION_SELL","outputs":[{"internalType":"uint8","name":"","type":"uint8"}],"stateMutability":"view","type":"function"},{"inputs":[],"name":"DOMAIN_SEPARATOR","outputs":[{"internalType":"bytes32","name":"","type":"bytes32"}],"stateMutability":"view","type":"function"},{"inputs":[],"name":"ORDER_TYPEHASH","outputs":[{"internalType":"bytes32","name":"","type":"bytes32"}],"stateMutability":"view","type":"function"},{"inputs":[{"internalType":"address","name":"","type":"address"}],"name":"allowance","outputs":[{"internalType":"uint256","name":"","type":"uint256"}],"stateMutability":"view","type":"function"},{"inputs":[{"internalType":"uint8","name":"action","type":"uint8"},{"internalType":"uint256","name":"amount","type":"uint256"},{"internalType":"uint256","name":"price","type":"uint256"},{"internalType":"uint256","name":"deadline","type":"uint256"},{"internalType":"bytes","name":"signature","type":"bytes"}],"name":"executeOrder","outputs":[],"stateMutability":"nonpayable","type":"function"},{"inputs":[{"internalType":"address","name":"user","type":"address"}],"name":"getNonce","outputs":[{"internalType":"uint256","name":"","type":"uint256"}],"stateMutability":"view","type":"function"},{"inputs":[{"internalType":"address","name":"","type":"address"}],"name":"nonces","outputs":[{"internalType":"uint256","name":"","type":"uint256"}],"stateMutability":"view","type":"function"},{"inputs":[],"name":"revokeAllowance","outputs":[],"stateMutability":"nonpayable","type":"function"},{"inputs":[{"internalType":"uint256","name":"amount","type":"uint256"}],"name":"setAllowance","outputs":[],"stateMutability":"nonpayable","type":"function"}],"evm":{"bytecode":{"linkReferences":{},"object":"60a060405234801561001057600080fd5b50604080518082018252600d81526c29b0b332a2bc32b1baba34b7b760991b6020918201528151808301835260018152603160f81b9082015281517f8b73c3c69bb8fe3d512ecc4cf759cc79239f7b179b0ffacaa9a75d522b39400f918101919091527f17feb5d45a074dc0456afe285743203c309f07c49e81f069af6079743a5e00a7918101919091527fc89efdaa54c0f20c7adf612882df0950f5a951637e0307cdcb4c672f298b8bc660608201524660808201523060a082015260c00160408051601f1981840301815291905280516020909101206080526080516108b061010d60003960008181610101015261034601526108b06000f3fe608060405234801561001057600080fd5b506004361061009e5760003560e01c80633e5beab9116100665780633e5beab91461013657806353ed62f9146101565780637ecebe001461017057806399d63bb714610190578063f973a2091461019857600080fd5b80632bdf8546146100a35780632d0335ab146100b8578063311c65e0146100f45780633644e515146100fc5780633ba93f2614610123575b600080fd5b6100b66100b1366004610735565b6101bf565b005b6100e16100c63660046107dc565b6001600160a01b031660009081526001602052604090205490565b6040519081526020015b60405180910390f35b6100b661055a565b6100e17f000000000000000000000000000000000000000000000000000000000000000081565b6100b661013136600461080c565b61059e565b6100e16101443660046107dc565b60006020819052908152604090205481565b61015e600181565b60405160ff90911681526020016100eb565b6100e161017e3660046107dc565b60016020526000908152604090205481565b61015e600081565b6100e17f8595994eac2891ccc8b5a2a64e996bbcf12a92d512cf6ed0b9559bff5ca0951b81565b8242111561020d5760405162461bcd60e51b815260206004820152601660248201527514d85999515e1958dd5d1a5bdb8e88195e1c1a5c995960521b60448201526064015b60405180910390fd5b60ff86161580610220575060ff86166001145b61026c5760405162461bcd60e51b815260206004820152601d60248201527f53616665457865637574696f6e3a20696e76616c696420616374696f6e0000006044820152606401610204565b600085116102bc5760405162461bcd60e51b815260206004820152601a60248201527f53616665457865637574696f6e3a20616d6f756e74207a65726f0000000000006044820152606401610204565b3360008181526001602090815260408083205481517f8595994eac2891ccc8b5a2a64e996bbcf12a92d512cf6ed0b9559bff5ca0951b818501528083019590955260ff8b166060860152608085018a905260a0850189905260c085015260e0808501889052815180860390910181526101008501825280519083012061190160f01b6101208601527f00000000000000000000000000000000000000000000000000000000000000006101228601526101428086019190915281518086039091018152610162909401905282519201919091206103cf9084848080601f0160208091040260200160405190810160405280939291908181526020018383808284376000920191909152506105e592505050565b90506001600160a01b03811633146104295760405162461bcd60e51b815260206004820181905260248201527f53616665457865637574696f6e3a20696e76616c6964207369676e61747572656044820152606401610204565b336000818152602081905260409020548711156104925760405162461bcd60e51b815260206004820152602160248201527f53616665457865637574696f6e3a20616c6c6f77616e636520657863656564656044820152601960fa1b6064820152608401610204565b6001600160a01b038116600090815260208190526040812080548992906104ba90849061083b565b90915550506001600160a01b038116600090815260016020819052604090912054906104e790829061084e565b6001600160a01b03831660008181526001602090815260409182902093909355805160ff8d1681529283018b9052820189905260608201839052907ffff734a63d3aaacab614b8693ead580399991ad0ea7725615b0b02d2f861d62a9060800160405180910390a2505050505050505050565b33600081815260208181526040808320839055519182527ffe8c0d8594f34b56806542999bd528bee3ffe8a95e165d8e5c104f0b97cf8962910160405180910390a2565b336000818152602081815260409182902084905590518381527ffe8c0d8594f34b56806542999bd528bee3ffe8a95e165d8e5c104f0b97cf8962910160405180910390a250565b600081516041146106425760405162461bcd60e51b815260206004820152602160248201527f53616665457865637574696f6e3a20696e76616c696420736967206c656e67746044820152600d60fb1b6064820152608401610204565b60208201516040830151606084015160001a601b81101561066b57610668601b82610861565b90505b8060ff16601b148061068057508060ff16601c145b6106cc5760405162461bcd60e51b815260206004820152601860248201527f53616665457865637574696f6e3a20696e76616c6964207600000000000000006044820152606401610204565b60408051600081526020810180835288905260ff831691810191909152606081018490526080810183905260019060a0016020604051602081039080840390855afa15801561071f573d6000803e3d6000fd5b5050506020604051035193505050505b92915050565b60008060008060008060a0878903121561074e57600080fd5b863560ff8116811461075f57600080fd5b9550602087013594506040870135935060608701359250608087013567ffffffffffffffff8082111561079157600080fd5b818901915089601f8301126107a557600080fd5b8135818111156107b457600080fd5b8a60208285010111156107c657600080fd5b6020830194508093505050509295509295509295565b6000602082840312156107ee57600080fd5b81356001600160a01b038116811461080557600080fd5b9392505050565b60006020828403121561081e57600080fd5b5035919050565b634e487b7160e01b600052601160045260246000fd5b8181038181111561072f5761072f610825565b8082018082111561072f5761072f610825565b60ff818116838216019081111561072f5761072f61082556fea26469706673582212205c2d9060cc3094380eeafeec095a8a366edabf0a3563f4da3c5e5473badc256b64736f6c63430008140033","opcodes":"PUSH1 0xA0 PUSH1 0x40 MSTORE CALLVALUE DUP1 ISZERO PUSH2 0x10 JUMPI PUSH1 0x0 DUP1 REVERT JUMPDEST POP PUSH1 0x40 DUP1 MLOAD DUP1 DUP3 ADD DUP3 MSTORE PUSH1 0xD DUP2 MSTORE PUSH13 0x29B0B332A2BC32B1BABA34B7B7 PUSH1 0x99 SHL PUSH1 0x20 SWAP2 DUP3 ADD MSTORE DUP2 MLOAD DUP1 DUP4 ADD DUP4 MSTORE PUSH1 0x1 DUP2 MSTORE PUSH1 0x31 PUSH1 0xF8 SHL SWAP1 DUP3 ADD MSTORE DUP2 MLOAD PUSH32 0x8B73C3C69BB8FE3D512ECC4CF759CC79239F7B179B0FFACAA9A75D522B39400F SWAP2 DUP2 ADD SWAP2 SWAP1 SWAP2 MSTORE PUSH32 0x17FEB5D45A074DC0456AFE285743203C309F07C49E81F069AF6079743A5E00A7 SWAP2 DUP2 ADD SWAP2 SWAP1 SWAP2 MSTORE PUSH32 0xC89EFDAA54C0F20C7ADF612882DF0950F5A951637E0307CDCB4C672F298B8BC6 PUSH1 0x60 DUP3 ADD MSTORE CHAINID PUSH1 0x80 DUP3 ADD MSTORE ADDRESS PUSH1 0xA0 DUP3 ADD MSTORE PUSH1 0xC0 ADD PUSH1 0x40 DUP1 MLOAD PUSH1 0x1F NOT DUP2 DUP5 SUB ADD DUP2 MSTORE SWAP2 SWAP1 MSTORE DUP1 MLOAD PUSH1 0x20 SWAP1 SWAP2 ADD KECCAK256 PUSH1 0x80 MSTORE PUSH1 0x80 MLOAD PUSH2 0x8B0 PUSH2 0x10D PUSH1 0x0 CODECOPY PUSH1 0x0 DUP2 DUP2 PUSH2 0x101 ADD MSTORE PUSH2 0x346 ADD MSTORE PUSH2 0x8B0 PUSH1 0x0 RETURN INVALID PUSH1 0x80 PUSH1 0x40 MSTORE CALLVALUE DUP1 ISZERO PUSH2 0x10 JUMPI PUSH1 0x0 DUP1 REVERT JUMPDEST POP PUSH1 0x4 CALLDATASIZE LT PUSH2 0x9E JUMPI PUSH1 0x0 CALLDATALOAD PUSH1 0xE0 SHR DUP1 PUSH4 0x3E5BEAB9 GT PUSH2 0x66 JUMPI DUP1 PUSH4 0x3E5BEAB9 EQ PUSH2 0x136 JUMPI DUP1 PUSH4 0x53ED62F9 EQ PUSH2 0x156 JUMPI DUP1 PUSH4 0x7ECEBE00 EQ PUSH2 0x170 JUMPI DUP1 PUSH4 0x99D63BB7 EQ PUSH2 0x190 JUMPI DUP1 PUSH4 0xF973A209 EQ PUSH2 0x198 JUMPI PUSH1 0x0 DUP1 REVERT JUMPDEST DUP1 PUSH4 0x2BDF8546 EQ PUSH2 0xA3 JUMPI DUP1 PUSH4 0x2D0335AB EQ PUSH2 0xB8 JUMPI DUP1 PUSH4 0x311C65E0 EQ PUSH2 0xF4 JUMPI DUP1 PUSH4 0x3644E515 EQ PUSH2 0xFC JUMPI DUP1 PUSH4 0x3BA93F26 EQ PUSH2 0x123 JUMPI JUMPDEST PUSH1 0x0 DUP1 REVERT JUMPDEST PUSH2 0xB6 PUSH2 0xB1 CALLDATASIZE PUSH1 0x4 PUSH2 0x735 JUMP JUMPDEST PUSH2 0x1BF JUMP JUMPDEST STOP JUMPDEST PUSH2 0xE1 PUSH2 0xC6 CALLDATASIZE PUSH1 0x4 PUSH2 0x7DC JUMP JUMPDEST PUSH1 0x1 PUSH1 0x1 PUSH1 0xA0 SHL SUB AND PUSH1 0x0 SWAP1 DUP2 MSTORE PUSH1 0x1 PUSH1 0x20 MSTORE PUSH1 0x40 SWAP1 KECCAK256 SLOAD SWAP1 JUMP JUMPDEST PUSH1 0x40 MLOAD SWAP1 DUP2 MSTORE PUSH1 0x20 ADD JUMPDEST PUSH1 0x40 MLOAD DUP1 SWAP2 SUB SWAP1 RETURN JUMPDEST PUSH2 0xB6 PUSH2 0x55A JUMP JUMPDEST PUSH2 0xE1 PUSH32 0x0 DUP2 JUMP JUMPDEST PUSH2 0xB6 PUSH2 0x131 CALLDATASIZE PUSH1 0x4 PUSH2 0x80C JUMP JUMPDEST PUSH2 0x59E JUMP JUMPDEST PUSH2 0xE1 PUSH2 0x144 CALLDATASIZE PUSH1 0x4 PUSH2 0x7DC JUMP JUMPDEST PUSH1 0x0 PUSH1 0x20 DUP2 SWAP1 MSTORE SWAP1 DUP2 MSTORE PUSH1 0x40 SWAP1 KECCAK256 SLOAD DUP2 JUMP JUMPDEST PUSH2 0x15E PUSH1 0x1 DUP2 JUMP JUMPDEST PUSH1 0x40 MLOAD PUSH1 0xFF SWAP1 SWAP2 AND DUP2 MSTORE PUSH1 0x20 ADD PUSH2 0xEB JUMP JUMPDEST PUSH2 0xE1 PUSH2 0x17E CALLDATASIZE PUSH1 0x4 PUSH2 0x7DC JUMP JUMPDEST PUSH1 0x1 PUSH1 0x20 MSTORE PUSH1 0x0 SWAP1 DUP2 MSTORE PUSH1 0x40 SWAP1 KECCAK256 SLOAD DUP2 JUMP JUMPDEST PUSH2 0x15E PUSH1 0x0 DUP2 JUMP JUMPDEST PUSH2 0xE1 PUSH32 0x8595994EAC2891CCC8B5A2A64E996BBCF12A92D512CF6ED0B9559BFF5CA0951B DUP2 JUMP JUMPDEST DUP3 TIMESTAMP GT ISZERO PUSH2 0x20D JUMPI PUSH1 0x40 MLOAD PUSH3 0x461BCD PUSH1 0xE5 SHL DUP2 MSTORE PUSH1 0x20 PUSH1 0x4 DUP3 ADD MSTORE PUSH1 0x16 PUSH1 0x24 DUP3 ADD MSTORE PUSH22 0x14D85999515E1958DD5D1A5BDB8E88195E1C1A5C9959 PUSH1 0x52 SHL PUSH1 0x44 DUP3 ADD MSTORE PUSH1 0x64 ADD JUMPDEST PUSH1 0x40 MLOAD DUP1 SWAP2 SUB SWAP1 REVERT JUMPDEST PUSH1 0xFF DUP7 AND ISZERO DUP1 PUSH2 0x220 JUMPI POP PUSH1 0xFF DUP7 AND PUSH1 0x1 EQ JUMPDEST PUSH2 0x26C JUMPI PUSH1 0x40 MLOAD PUSH3 0x461BCD PUSH1 0xE5 SHL DUP2 MSTORE PUSH1 0x20 PUSH1 0x4 DUP3 ADD MSTORE PUSH1 0x1D PUSH1 0x24 DUP3 ADD MSTORE PUSH32 0x53616665457865637574696F6E3A20696E76616C696420616374696F6E000000 PUSH1 0x44 DUP3 ADD MSTORE PUSH1 0x64 ADD PUSH2 0x204 JUMP JUMPDEST PUSH1 0x0 DUP6 GT PUSH2 0x2BC JUMPI PUSH1 0x40 MLOAD PUSH3 0x461BCD PUSH1 0xE5 SHL DUP2 MSTORE PUSH1 0x20 PUSH1 0x4 DUP3 ADD MSTORE PUSH1 0x1A PUSH1 0x24 DUP3 ADD MSTORE PUSH32 0x53616665457865637574696F6E3A20616D6F756E74207A65726F000000000000 PUSH1 0x44 DUP3 ADD MSTORE PUSH1 0x64 ADD PUSH2 0x204 JUMP JUMPDEST CALLER PUSH1 0x0 DUP2 DUP2 MSTORE PUSH1 0x1 PUSH1 0x20 SWAP1 DUP2 MSTORE PUSH1 0x40 DUP1 DUP4 KECCAK256 SLOAD DUP2 MLOAD PUSH32 0x8595994EAC2891CCC8B5A2A64E996BBCF12A92D512CF6ED0B9559BFF5CA0951B DUP2 DUP6 ADD MSTORE DUP1 DUP4 ADD SWAP6 SWAP1 SWAP6 MSTORE PUSH1 0xFF DUP12 AND PUSH1 0x60 DUP7 ADD MSTORE PUSH1 0x80 DUP6 ADD DUP11 SWAP1 MSTORE PUSH1 0xA0 DUP6 ADD DUP10 SWAP1 MSTORE PUSH1 0xC0 DUP6 ADD MSTORE PUSH1 0xE0 DUP1 DUP6 ADD DUP9 SWAP1 MSTORE DUP2 MLOAD DUP1 DUP7 SUB SWAP1 SWAP2 ADD DUP2 MSTORE PUSH2 0x100 DUP6 ADD DUP3 MSTORE DUP1 MLOAD SWAP1 DUP4 ADD KECCAK256 PUSH2 0x1901 PUSH1 0xF0 SHL PUSH2 0x120 DUP7 ADD MSTORE PUSH32 0x0 PUSH2 0x122 DUP7 ADD MSTORE PUSH2 0x142 DUP1 DUP7 ADD SWAP2 SWAP1 SWAP2 MSTORE DUP2 MLOAD DUP1 DUP7 SUB SWAP1 SWAP2 ADD DUP2 MSTORE PUSH2 0x162 SWAP1 SWAP5 ADD SWAP1 MSTORE DUP3 MLOAD SWAP3 ADD SWAP2 SWAP1 SWAP2 KECCAK256 PUSH2 0x3CF SWAP1 DUP5 DUP5 DUP1 DUP1 PUSH1 0x1F ADD PUSH1 0x20 DUP1 SWAP2 DIV MUL PUSH1 0x20 ADD PUSH1 0x40 MLOAD SWAP1 DUP2 ADD PUSH1 0x40 MSTORE DUP1 SWAP4 SWAP3 SWAP2 SWAP1 DUP2 DUP2 MSTORE PUSH1 0x20 ADD DUP4 DUP4 DUP1 DUP3 DUP5 CALLDATACOPY PUSH1 0x0 SWAP3 ADD SWAP2 SWAP1 SWAP2 MSTORE POP PUSH2 0x5E5 SWAP3 POP POP POP JUMP JUMPDEST SWAP1 POP PUSH1 0x1 PUSH1 0x1 PUSH1 0xA0 SHL SUB DUP2 AND CALLER EQ PUSH2 0x429 JUMPI PUSH1 0x40 MLOAD PUSH3 0x461BCD PUSH1 0xE5 SHL DUP2 MSTORE PUSH1 0x20 PUSH1 0x4 DUP3 ADD DUP2 SWAP1 MSTORE PUSH1 0x24 DUP3 ADD MSTORE PUSH32 0x53616665457865637574696F6E3A20696E76616C6964207369676E6174757265 PUSH1 0x44 DUP3 ADD MSTORE PUSH1 0x64 ADD PUSH2 0x204 JUMP JUMPDEST CALLER PUSH1 0x0 DUP2 DUP2 MSTORE PUSH1 0x20 DUP2 SWAP1 MSTORE PUSH1 0x40 SWAP1 KECCAK256 SLOAD DUP8 GT ISZERO PUSH2 0x492 JUMPI PUSH1 0x40 MLOAD PUSH3 0x461BCD PUSH1 0xE5 SHL DUP2 MSTORE PUSH1 0x20 PUSH1 0x4 DUP3 ADD MSTORE PUSH1 0x21 PUSH1 0x24 DUP3 ADD MSTORE PUSH32 0x53616665457865637574696F6E3A20616C6C6F77616E63652065786365656465 PUSH1 0x44 DUP3 ADD MSTORE PUSH1 0x19 PUSH1 0xFA SHL PUSH1 0x64 DUP3 ADD MSTORE PUSH1 0x84 ADD PUSH2 0x204 JUMP JUMPDEST PUSH1 0x1 PUSH1 0x1 PUSH1 0xA0 SHL SUB DUP2 AND PUSH1 0x0 SWAP1 DUP2 MSTORE PUSH1 0x20 DUP2 SWAP1 MSTORE PUSH1 0x40 DUP2 KECCAK256 DUP1 SLOAD DUP10 SWAP3 SWAP1 PUSH2 0x4BA SWAP1 DUP5 SWAP1 PUSH2 0x83B JUMP JUMPDEST SWAP1 SWAP2 SSTORE POP POP PUSH1 0x1 PUSH1 0x1 PUSH1 0xA0 SHL SUB DUP2 AND PUSH1 0x0 SWAP1 DUP2 MSTORE PUSH1 0x1 PUSH1 0x20 DUP2 SWAP1 MSTORE PUSH1 0x40 SWAP1 SWAP2 KECCAK256 SLOAD SWAP1 PUSH2 0x4E7 SWAP1 DUP3 SWAP1 PUSH2 0x84E JUMP JUMPDEST PUSH1 0x1 PUSH1 0x1 PUSH1 0xA0 SHL SUB DUP4 AND PUSH1 0x0 DUP2 DUP2 MSTORE PUSH1 0x1 PUSH1 0x20 SWAP1 DUP2 MSTORE PUSH1 0x40 SWAP2 DUP3 SWAP1 KECCAK256 SWAP4 SWAP1 SWAP4 SSTORE DUP1 MLOAD PUSH1 0xFF DUP14 AND DUP2 MSTORE SWAP3 DUP4 ADD DUP12 SWAP1 MSTORE DUP3 ADD DUP10 SWAP1 MSTORE PUSH1 0x60 DUP3 ADD DUP4 SWAP1 MSTORE SWAP1 PUSH32 0xFFF734A63D3AAACAB614B8693EAD580399991AD0EA7725615B0B02D2F861D62A SWAP1 PUSH1 0x80 ADD PUSH1 0x40 MLOAD DUP1 SWAP2 SUB SWAP1 LOG2 POP POP POP POP POP POP POP POP POP JUMP JUMPDEST CALLER PUSH1 0x0 DUP2 DUP2 MSTORE PUSH1 0x20 DUP2 DUP2 MSTORE PUSH1 0x40 DUP1 DUP4 KECCAK256 DUP4 SWAP1 SSTORE MLOAD SWAP2 DUP3 MSTORE PUSH32 0xFE8C0D8594F34B56806542999BD528BEE3FFE8A95E165D8E5C104F0B97CF8962 SWAP2 ADD PUSH1 0x40 MLOAD DUP1 SWAP2 SUB SWAP1 LOG2 JUMP JUMPDEST CALLER PUSH1 0x0 DUP2 DUP2 MSTORE PUSH1 0x20 DUP2 DUP2 MSTORE PUSH1 0x40 SWAP2 DUP3 SWAP1 KECCAK256 DUP5 SWAP1 SSTORE SWAP1 MLOAD DUP4 DUP2 MSTORE PUSH32 0xFE8C0D8594F34B56806542999BD528BEE3FFE8A95E165D8E5C104F0B97CF8962 SWAP2 ADD PUSH1 0x40 MLOAD DUP1 SWAP2 SUB SWAP1 LOG2 POP JUMP JUMPDEST PUSH1 0x0 DUP2 MLOAD PUSH1 0x41 EQ PUSH2 0x642 JUMPI PUSH1 0x40 MLOAD PUSH3 0x461BCD PUSH1 0xE5 SHL DUP2 MSTORE PUSH1 0x20 PUSH1 0x4 DUP3 ADD MSTORE PUSH1 0x21 PUSH1 0x24 DUP3 ADD MSTORE PUSH32 0x53616665457865637574696F6E3A20696E76616C696420736967206C656E6774 PUSH1 0x44 DUP3 ADD MSTORE PUSH1 0xD PUSH1 0xFB SHL PUSH1 0x64 DUP3 ADD MSTORE PUSH1 0x84 ADD PUSH2 0x204 JUMP JUMPDEST PUSH1 0x20 DUP3 ADD MLOAD PUSH1 0x40 DUP4 ADD MLOAD PUSH1 0x60 DUP5 ADD MLOAD PUSH1 0x0 BYTE PUSH1 0x1B DUP2 LT ISZERO PUSH2 0x66B JUMPI PUSH2 0x668 PUSH1 0x1B DUP3 PUSH2 0x861 JUMP JUMPDEST SWAP1 POP JUMPDEST DUP1 PUSH1 0xFF AND PUSH1 0x1B EQ DUP1 PUSH2 0x680 JUMPI POP DUP1 PUSH1 0xFF AND PUSH1 0x1C EQ JUMPDEST PUSH2 0x6CC JUMPI PUSH1 0x40 MLOAD PUSH3 0x461BCD PUSH1 0xE5 SHL DUP2 MSTORE PUSH1 0x20 PUSH1 0x4 DUP3 ADD MSTORE PUSH1 0x18 PUSH1 0x24 DUP3 ADD MSTORE PUSH32 0x53616665457865637574696F6E3A20696E76616C696420760000000000000000 PUSH1 0x44 DUP3 ADD MSTORE PUSH1 0x64 ADD PUSH2 0x204 JUMP JUMPDEST PUSH1 0x40 DUP1 MLOAD PUSH1 0x0 DUP2 MSTORE PUSH1 0x20 DUP2 ADD DUP1 DUP4 MSTORE DUP9 SWAP1 MSTORE PUSH1 0xFF DUP4 AND SWAP2 DUP2 ADD SWAP2 SWAP1 SWAP2 MSTORE PUSH1 0x60 DUP2 ADD DUP5 SWAP1 MSTORE PUSH1 0x80 DUP2 ADD DUP4 SWAP1 MSTORE PUSH1 0x1 SWAP1 PUSH1 0xA0 ADD PUSH1 0x20 PUSH1 0x40 MLOAD PUSH1 0x20 DUP2 SUB SWAP1 DUP1 DUP5 SUB SWAP1 DUP6 GAS STATICCALL ISZERO DUP1 ISZERO PUSH2 0x71F JUMPI RETURNDATASIZE PUSH1 0x0 DUP1 RETURNDATACOPY RETURNDATASIZE PUSH1 0x0 REVERT JUMPDEST POP POP POP PUSH1 0x20 PUSH1 0x40 MLOAD SUB MLOAD SWAP4 POP POP POP POP JUMPDEST SWAP3 SWAP2 POP POP JUMP JUMPDEST PUSH1 0x0 DUP1 PUSH1 0x0 DUP1 PUSH1 0x0 DUP1 PUSH1 0xA0 DUP8 DUP10 SUB SLT ISZERO PUSH2 0x74E JUMPI PUSH1 0x0 DUP1 REVERT JUMPDEST DUP7 CALLDATALOAD PUSH1 0xFF DUP2 AND DUP2 EQ PUSH2 0x75F JUMPI PUSH1 0x0 DUP1 REVERT JUMPDEST SWAP6 POP PUSH1 0x20 DUP8 ADD CALLDATALOAD SWAP5 POP PUSH1 0x40 DUP8 ADD CALLDATALOAD SWAP4 POP PUSH1 0x60 DUP8 ADD CALLDATALOAD SWAP3 POP PUSH1 0x80 DUP8 ADD CALLDATALOAD PUSH8 0xFFFFFFFFFFFFFFFF DUP1 DUP3 GT ISZERO PUSH2 0x791 JUMPI PUSH1 0x0 DUP1 REVERT JUMPDEST DUP2 DUP10 ADD SWAP2 POP DUP10 PUSH1 0x1F DUP4 ADD SLT PUSH2 0x7A5 JUMPI PUSH1 0x0 DUP1 REVERT JUMPDEST DUP2 CALLDATALOAD DUP2 DUP2 GT ISZERO PUSH2 0x7B4 JUMPI PUSH1 0x0 DUP1 REVERT JUMPDEST DUP11 PUSH1 0x20 DUP3 DUP6 ADD ADD GT ISZERO PUSH2 0x7C6 JUMPI PUSH1 0x0 DUP1 REVERT JUMPDEST PUSH1 0x20 DUP4 ADD SWAP5 POP DUP1 SWAP4 POP POP POP POP SWAP3 SWAP6 POP SWAP3 SWAP6 POP SWAP3 SWAP6 JUMP JUMPDEST PUSH1 0x0 PUSH1 0x20 DUP3 DUP5 SUB SLT ISZERO PUSH2 0x7EE JUMPI PUSH1 0x0 DUP1 REVERT JUMPDEST DUP2 CALLDATALOAD PUSH1 0x1 PUSH1 0x1 PUSH1 0xA0 SHL SUB DUP2 AND DUP2 EQ PUSH2 0x805 JUMPI PUSH1 0x0 DUP1 REVERT JUMPDEST SWAP4 SWAP3 POP POP POP JUMP JUMPDEST PUSH1 0x0 PUSH1 0x20 DUP3 DUP5 SUB SLT ISZERO PUSH2 0x81E JUMPI PUSH1 0x0 DUP1 REVERT JUMPDEST POP CALLDATALOAD SWAP2 SWAP1 POP JUMP JUMPDEST PUSH4 0x4E487B71 PUSH1 0xE0 SHL PUSH1 0x0 MSTORE PUSH1 0x11 PUSH1 0x4 MSTORE PUSH1 0x24 PUSH1 0x0 REVERT JUMPDEST DUP2 DUP2 SUB DUP2 DUP2 GT ISZERO PUSH2 0x72F JUMPI PUSH2 0x72F PUSH2 0x825 JUMP JUMPDEST DUP1 DUP3 ADD DUP1 DUP3 GT ISZERO PUSH2 0x72F JUMPI PUSH2 0x72F PUSH2 0x825 JUMP JUMPDEST PUSH1 0xFF DUP2 DUP2 AND DUP4 DUP3 AND ADD SWAP1 DUP2 GT ISZERO PUSH2 0x72F JUMPI PUSH2 0x72F PUSH2 0x825 JUMP INVALID LOG2 PUSH5 0x6970667358 0x22 SLT KECCAK256 0x5C 0x2D SWAP1 PUSH1 0xCC ADDRESS SWAP5 CODESIZE 0xE 0xEA INVALID 0xEC MULMOD GAS DUP11 CALLDATASIZE PUSH15 0xDABF0A3563F4DA3C5E5473BADC256B PUSH5 0x736F6C6343 STOP ADDMOD EQ STOP CALLER "},"methodIdentifiers":{"ACTION_BUY()":"99d63bb7","ACTION_SELL()":"53ed62f9","DOMAIN_SEPARATOR()":"3644e515","ORDER_TYPEHASH()":"f973a209","allowance(address)":"3e5beab9","executeOrder(uint8,uint256,uint256,uint256,bytes)":"2bdf8546","getNonce(address)":"2d0335ab","nonces(address)":"7ecebe00","revokeAllowance()":"311c65e0","setAllowance(uint256)":"3ba93f26"}}}}}