{
  "_format": "hh-sol-artifact-1",
  "contractName": "SafeExecution",
  "sourceName": "contracts/SafeExecution.sol",
  "abi": [
    {
      "inputs": [],
      "stateMutability": "nonpayable",
      "type": "constructor"
    },
    {
      "anonymous": false,
      "inputs": [
        {
          "indexed": true,
          "internalType": "address",
          "name": "user",
          "type": "address"
        },
        {
          "indexed": false,
          "internalType": "uint256",
          "name": "amount",
          "type": "uint256"
        }
      ],
      "name": "AllowanceSet",
      "type": "event"
    },
    {
      "anonymous": false,
      "inputs": [
        {
          "indexed": true,
          "internalType": "address",
          "name": "user",
          "type": "address"
        },
        {
          "indexed": false,
          "internalType": "uint8",
          "name": "action",
          "type": "uint8"
        },
        {
          "indexed": false,
          "internalType": "uint256",
          "name": "amount",
          "type": "uint256"
        },
        {
          "indexed": false,
          "internalType": "uint256",
          "name": "price",
          "type": "uint256"
        },
        {
          "indexed": false,
          "internalType": "uint256",
          "name": "nonce",
          "type": "uint256"
        }
      ],
      "name": "OrderExecuted",
      "type": "event"
    },
    {
      "inputs": [],
      "name": "ACTION_BUY",
      "outputs": [
        {
          "internalType": "uint8",
          "name": "",
          "type": "uint8"
        }
      ],
      "stateMutability": "view",
      "type": "function"
    },
    {
      "inputs": [],
      "name": "ACTION_SELL",
      "outputs": [
        {
          "internalType": "uint8",
          "name": "",
          "type": "uint8"
        }
      ],
      "stateMutability": "view",
      "type": "function"
    },
    {
      "inputs": [],
      "name": "DOMAIN_SEPARATOR",
      "outputs": [
        {
          "internalType": "bytes32",
          "name": "",
          "type": "bytes32"
        }
      ],
      "stateMutability": "view",
      "type": "function"
    },
    {
      "inputs": [],
      "name": "ORDER_TYPEHASH",
      "outputs": [
        {
          "internalType": "bytes32",
          "name": "",
          "type": "bytes32"
        }
      ],
      "stateMutability": "view",
      "type": "function"
    },
    {
      "inputs": [
        {
          "internalType": "address",
          "name": "",
          "type": "address"
        }
      ],
      "name": "allowance",
      "outputs": [
        {
          "internalType": "uint256",
          "name": "",
          "type": "uint256"
        }
      ],
      "stateMutability": "view",
      "type": "function"
    },
    {
      "inputs": [
        {
          "internalType": "uint8",
          "name": "action",
          "type": "uint8"
        },
        {
          "internalType": "uint256",
          "name": "amount",
          "type": "uint256"
        },
        {
          "internalType": "uint256",
          "name": "price",
          "type": "uint256"
        },
        {
          "internalType": "uint256",
          "name": "deadline",
          "type": "uint256"
        },
        {
          "internalType": "bytes",
          "name": "signature",
          "type": "bytes"
        }
      ],
      "name": "executeOrder",
      "outputs": [],
      "stateMutability": "nonpayable",
      "type": "function"
    },
    {
      "inputs": [
        {
          "internalType": "address",
          "name": "user",
          "type": "address"
        }
      ],
      "name": "getNonce",
      "outputs": [
        {
          "internalType": "uint256",
          "name": "",
          "type": "uint256"
        }
      ],
      "stateMutability": "view",
      "type": "function"
    },
    {
      "inputs": [
        {
          "internalType": "address",
          "name": "",
          "type": "address"
        }
      ],
      "name": "nonces",
      "outputs": [
        {
          "internalType": "uint256",
          "name": "",
          "type": "uint256"
        }
      ],
      "stateMutability": "view",
      "type": "function"
    },
    {
      "inputs": [],
      "name": "revokeAllowance",
      "outputs": [],
      "stateMutability": "nonpayable",
      "type": "function"
    },
    {
      "inputs": [
        {
          "internalType": "uint256",
          "name": "amount",
          "type": "uint256"
        }
      ],
      "name": "setAllowance",
      "outputs": [],
      "stateMutability": "nonpayable",
      "type": "function"
    }
  ],
  "bytecode": "0x60a060405234801561001057600080fd5b50604080518082018252600d81526c29b0b332a2bc32b1baba34b7b760991b6020918201528151808301835260018152603160f81b9082015281517f8b73c3c69bb8fe3d512ecc4cf759cc79239f7b179b0ffacaa9a75d522b39400f918101919091527f17feb5d45a074dc0456afe285743203c309f07c49e81f069af6079743a5e00a7918101919091527fc89efdaa54c0f20c7adf612882df0950f5a951637e0307cdcb4c672f298b8bc660608201524660808201523060a082015260c00160408051601f1981840301815291905280516020909101206080526080516108b061010d60003960008181610101015261034601526108b06000f3fe608060405234801561001057600080fd5b506004361061009e5760003560e01c80633e5beab9116100665780633e5beab91461013657806353ed62f9146101565780637ecebe001461017057806399d63bb714610190578063f973a2091461019857600080fd5b80632bdf8546146100a35780632d0335ab146100b8578063311c65e0146100f45780633644e515146100fc5780633ba93f2614610123575b600080fd5b6100b66100b1366004610735565b6101bf565b005b6100e16100c63660046107dc565b6001600160a01b031660009081526001602052604090205490565b6040519081526020015b60405180910390f35b6100b661055a565b6100e17f000000000000000000000000000000000000000000000000000000000000000081565b6100b661013136600461080c565b61059e565b6100e16101443660046107dc565b60006020819052908152604090205481565b61015e600181565b60405160ff90911681526020016100eb565b6100e161017e3660046107dc565b60016020526000908152604090205481565b61015e600081565b6100e17f8595994eac2891ccc8b5a2a64e996bbcf12a92d512cf6ed0b9559bff5ca0951b81565b8242111561020d5760405162461bcd60e51b815260206004820152601660248201527514d85999515e1958dd5d1a5bdb8e88195e1c1a5c995960521b60448201526064015b60405180910390fd5b60ff86161580610220575060ff86166001145b61026c5760405162461bcd60e51b815260206004820152601d60248201527f53616665457865637574696f6e3a20696e76616c696420616374696f6e0000006044820152606401610204565b600085116102bc5760405162461bcd60e51b815260206004820152601a60248201527f53616665457865637574696f6e3a20616d6f756e74207a65726f0000000000006044820152606401610204565b3360008181526001602090815260408083205481517f8595994eac2891ccc8b5a2a64e996bbcf12a92d512cf6ed0b9559bff5ca0951b818501528083019590955260ff8b166060860152608085018a905260a0850189905260c085015260e0808501889052815180860390910181526101008501825280519083012061190160f01b6101208601527f00000000000000000000000000000000000000000000000000000000000000006101228601526101428086019190915281518086039091018152610162909401905282519201919091206103cf9084848080601f0160208091040260200160405190810160405280939291908181526020018383808284376000920191909152506105e592505050565b90506001600160a01b03811633146104295760405162461bcd60e51b815260206004820181905260248201527f53616665457865637574696f6e3a20696e76616c6964207369676e61747572656044820152606401610204565b336000818152602081905260409020548711156104925760405162461bcd60e51b815260206004820152602160248201527f53616665457865637574696f6e3a20616c6c6f77616e636520657863656564656044820152601960fa1b6064820152608401610204565b6001600160a01b038116600090815260208190526040812080548992906104ba90849061083b565b90915550506001600160a01b038116600090815260016020819052604090912054906104e790829061084e565b6001600160a01b03831660008181526001602090815260409182902093909355805160ff8d1681529283018b9052820189905260608201839052907ffff734a63d3aaacab614b8693ead580399991ad0ea7725615b0b02d2f861d62a9060800160405180910390a2505050505050505050565b33600081815260208181526040808320839055519182527ffe8c0d8594f34b56806542999bd528bee3ffe8a95e165d8e5c104f0b97cf8962910160405180910390a2565b336000818152602081815260409182902084905590518381527ffe8c0d8594f34b56806542999bd528bee3ffe8a95e165d8e5c104f0b97cf8962910160405180910390a250565b600081516041146106425760405162461bcd60e51b815260206004820152602160248201527f53616665457865637574696f6e3a20696e76616c696420736967206c656e67746044820152600d60fb1b6064820152608401610204565b60208201516040830151606084015160001a601b81101561066b57610668601b82610861565b90505b8060ff16601b148061068057508060ff16601c145b6106cc5760405162461bcd60e51b815260206004820152601860248201527f53616665457865637574696f6e3a20696e76616c6964207600000000000000006044820152606401610204565b60408051600081526020810180835288905260ff831691810191909152606081018490526080810183905260019060a0016020604051602081039080840390855afa15801561071f573d6000803e3d6000fd5b5050506020604051035193505050505b92915050565b60008060008060008060a0878903121561074e57600080fd5b863560ff8116811461075f57600080fd5b9550602087013594506040870135935060608701359250608087013567ffffffffffffffff8082111561079157600080fd5b818901915089601f8301126107a557600080fd5b8135818111156107b457600080fd5b8a60208285010111156107c657600080fd5b6020830194508093505050509295509295509295565b6000602082840312156107ee57600080fd5b81356001600160a01b038116811461080557600080fd5b9392505050565b60006020828403121561081e57600080fd5b5035919050565b634e487b7160e01b600052601160045260246000fd5b8181038181111561072f5761072f610825565b8082018082111561072f5761072f610825565b60ff818116838216019081111561072f5761072f61082556fea26469706673582212205c2d9060cc3094380eeafeec095a8a366edabf0a3563f4da3c5e5473badc256b64736f6c63430008140033",
  "linkReferences": {},
  "deployedLinkReferences": {}
}